:1000000019C02BC02AC029C028C027C026C025C0BF
:1000100024C023C022C021C020C01FC01EC01DC0DC
:100020001CC01BC01AC019C018C017C016C015C00C
:1000300014C013C011241FBECFEFD2E0DEBFCDBF6E
:1000400012E0A0E0B1E0E8ECF1E002C005900D9212
:10005000A63DB107D9F73ED0B5C0D2CF17B8EAE771
:10006000F0E080818768808308958FEF8AB98BB92B
:10007000E1E8F0E080818560808308958EEB86BDA5
:1000800085B5846085BDA89BFECF15BCA89A089550
:10009000FF920F931F93CF93DF9395E0899FC00149
:1000A0001124EC01C159DF4FFF24FA948C010C5844
:1000B0001F4F899180958BB9E1DFFBB8DFDFC01757
:1000C000D107B9F7DBDFDADFDF91CF911F910F9115
:1000D000FF9008958F929F92AF92BF92CF92DF923E
:1000E000EF92FF920F931F93CF93DF938FEF8AB915
:1000F0008BB98091810085608093810017B88091D1
:100100007A00876880937A0000E030E9A32E31E01E
:10011000B32E88248A9426E0C22E21E0D22E95E0C8
:10012000992E80E0E82E81E0F82E01C000E0809159
:100130007A00806480937A0080917A0084FFFCCFFB
:100140009091780080917900D82FC0E0892F90E0BD
:100150008C2B9D2B23E0893E920760F180918400D7
:100160009091850082519A4728F4F0920E01E09216
:100170000D0104C0D0920E01C0920D0190920C01AD
:1001800088E592E0F5013197F1F70197D9F710E092
:1001900009C0E0910D01F0910E01E10FF11D808188
:1001A00077DF1F5F80910C01181798F38BB866DF1B
:1001B00065DFBDCFC29708F0BACF013009F4B6CFE2
:0801C00001E0B5CFF894FFCF78
:1001C80048656C6C6F0049454545210005000100F4
:1001D800000000000000BE0000000E000E0028FE17
:1001E80028FE284854FE5424462610C8C46C92AAF7
:1001F80044A0000000000000000000000000000013
:1002080000000000000000000000000000000000E6
:100218000000000000000000000000000000007C5A
:10022800A2928A7C0084FE800084C2A2928C4282C0
:100238008A9662302824FE204E8A8A8A727894929E
:10024800926002F20A0A066C9292926C0C92925296
:100258003C0000000000000000000000000000005A
:100268000000000000000000000000000000002066
:1002780044404420FE111111FEFF99999966FF81AF
:10028800818181FF8181C37EFF99999981FF090945
:1002980009017E81919172FF181818FF8181FF81F1
:1002A80081408080807FFF18244281FF8080808089
:1002B800FF020C02FFFF061860FF7E8181817EFF2E
:1002C800090909067E81A141BEFF091929C6468987
:1002D8009191620101FF01017F8080807F3F408012
:1002E800403F7F8070807F63140814630708F80814
:1002F80007615149454300102043400000000000B9
:100308004043201000000000000000000000000032
:100318000000000040A8A8A8F0FEA0909060708897
:10032800888840609090A0FE70A8A8A83008FC0AB1
:10033800020418A4A4A47CFE100808F00000F4002D
:10034800004080807A00FE205088000082FE8000F5
:10035800F8083008F0F8100808F07088888870F8F5
:100368002828281010282830F8F81008081090A815
:10037800A8A84000087E884078808040F8384080EF
:1003880040387880608078885020508818A0A0A0D5
:060398007888C8A89888CF
:00000001FF
